:100000000C946B000C9493000C9493000C9493004C
:100010000C9493000C9493000C9493000C94930014
:100020000C9493000C9493000C9493000C944D0347
:100030000C9493000C9493000C9493000C949300F4
:100040000C94CF010C9493000C941B030C94F502B8
:100050000C9493000C9493000C9493000C949300D4
:100060000C9493000C949300280C2D0C4A0CB50CA6
:10007000CB0CD50C0A0D130D000000002400270046
:100080002A0000000000250028002B0000000000CE
:1000900023002600290004040404040404040202CA
:1000A00002020202030303030303010204081020F7
:1000B0004080010204081020010204081020000002
:1000C0000008000201000003040700000000000017
:1000D0000000520D000A11241FBECFEFD8E0DEBF92
:1000E000CDBF23E0A6EBB1E001C01D92A937B20756
:1000F000E1F711E0A0E0B1E0E0EDF6E202C005902A
:100100000D92A63BB107D9F710E0CAE6D0E004C0D3
:100110002197FE010E943011C936D107C9F70E940C
:100120000E0A0C945B130C9400000895CF92DF929A
:10013000EF92FF920F931F93CF93DF936C017A019D
:100140008B01C0E0D0E0CE15DF0581F0D8016D91C4
:100150008D01D601ED91FC910190F081E02DC60159
:100160000995892B11F02196EECF7E01C701DF9111
:10017000CF911F910F91FF90EF90DF90CF90089556
:1001800080E090E00895FC01538D448D252F30E0F0
:10019000842F90E0821B930B541710F0CF96089594
:1001A00001970895FC01918D828D981761F0828DE1
:1001B000DF01A80FB11D5D968C91928D9F5F9F739B
:1001C000928F90E008958FEF9FEF0895FC01918D3D
:1001D000828D981731F0828DE80FF11D858D90E0AA
:1001E00008958FEF9FEF0895FC01918D228D892F47
:1001F00090E0805C9F4F821B91098F73992708952F
:1002000081EC91E00E94F40021E0892B09F420E0C8
:10021000822F0895FC01848DDF01A80FB11DA35A20
:10022000BF4F2C91848D90E001968F739927848F16
:10023000A689B7892C93A089B1898C918370806439
:100240008C93938D848D981306C00288F389E02DDA
:1002500080818F7D80830895EF92FF920F931F938B
:10026000CF93DF93EC0181E0888F9B8D8C8D981369
:1002700005C0E889F989808185FD26C0F62E0B8DA1
:1002800010E00F5F1F4F0F731127E02E8C8DE812C7
:100290000CC00FB607FCFACFE889F989808185FF89
:1002A000F5CFCE010E940A01F1CF8B8DFE01E80F40
:1002B000F11DE35AFF4FF0829FB7F8940B8FEA8944
:1002C000FB89808180620AC09FB7F894EE89FF891C
:1002D0006083E889F98980818370806480839FBF0F
:1002E00081E090E0DF91CF911F910F91FF90EF900F
:1002F0000895CF93DF93EC01888D8823C9F0EA89B4
:10030000FB89808185FD05C0A889B9898C9186FD0E
:100310000FC00FB607FCF5CF808185FFF2CFA8890B
:10032000B9898C9185FFEDCFCE010E940A01E7CFFC
:10033000DF91CF91089580E090E0892B29F00E9411
:10034000000181110C940000089508950E941D136E
:100350000F931F93CF93DF93EC01888199810097CE
:1003600029F02A813B812617370788F48B016F5FBC
:100370007F4F0E945712009761F0998388831B83F7
:100380000A832C813D81232B11F4FC01108281E032
:1003900001C080E0DF91CF911F910F9108951F92CE
:1003A0000F920FB60F9211242F933F938F939F9329
:1003B000AF93BF938091BD019091BE01A091BF0109
:1003C000B091C0013091BC0123E0230F2D3720F400
:1003D0000196A11DB11D05C026E8230F0296A11D9F
:1003E000B11D2093BC018093BD019093BE01A093E9
:1003F000BF01B093C0018091B8019091B901A09163
:10040000BA01B091BB010196A11DB11D8093B80145
:100410009093B901A093BA01B093BB01BF91AF9182
:100420009F918F913F912F910F900FBE0F901F9032
:100430001895CF93DF93FC0124813581232B71F034
:10044000FB01DC01CD91DC9160817181CE010E94C4
:100450004113009719F08C1B9D0B02C08FEF9FEF8B
:10046000DF91CF910895EF92FF920F931F93CF9357
:10047000DF936115710511F480E01CC04115510531
:10048000C1F07B01EC018C819D818A01080F191F4D
:10049000B801CE010E94A801882371F32881398117
:1004A0008C819D81B701820F931F0E942B131D83A6
:1004B0000C8381E0DF91CF911F910F91FF90EF901E
:1004C0000895CF93DF93EC0188819981009711F013
:1004D0000E94CE11198218821D821C821B821A82F0
:1004E000DF91CF910895CF93DF93EC0161157105F2
:1004F00061F0FB0101900020E9F73197AF01461B45
:10050000570B0E943302811103C0CE010E94610289
:10051000CE01DF91CF910895EF92FF920F931F9339
:10052000CF93DF93EC017B018A01BA010E94A801FD
:10053000811104C0CE010E94610207C01D830C839B
:10054000B701888199810E942B13CE01DF91CF9151
:100550001F910F91FF90EF900895CF93DF93EC01DF
:100560006115710559F0FB0101900020E9F7319701
:10057000AF01461B570B0E948C0202C00E94610211
:10058000CE01DF91CF910895CF93DF93EC01FB0172
:100590008617970761F0608171816115710529F0F7
:1005A000448155810E948C0202C00E946102CE01EA
:1005B000DF91CF910895FC01808191810C94CE113F
:1005C000FC0111821082138212821582148261153D
:1005D000710551F0FB0101900020E9F73197AF015F
:1005E000461B570B0C948C0208951F920F920FB666
:1005F0000F9211242F933F934F935F936F937F93A9
:100600008F939F93AF93BF93EF93FF9381EC91E010
:100610000E940A01FF91EF91BF91AF919F918F913D
:100620007F916F915F914F913F912F910F900FBEEE
:100630000F901F9018951F920F920FB60F921124D2
:100640002F938F939F93EF93FF93E091D101F091BC
:10065000D2018081E091D701F091D80182FD12C0D2
:1006600090818091DA018F5F8F732091DB01821777
:1006700051F0E091DA01F0E0EF53FE4F958F809357
:10068000DA0101C08081FF91EF919F918F912F91AD
:100690000F900FBE0F901F9018951F920F920FB6DC
:1006A0000F921124CF92DF92EF92FF922F933F93FC
:1006B0004F935F936F937F938F939F93AF93BF936A
:1006C000EF93FF9380916003882329F08091610369
:1006D000882309F4CEC0C0905003D0905103E0901D
:1006E0005203F090530340914C0350914D0360919D
:1006F0004E0370914F03C416D506E606F70609F4BB
:10070000B2C02091430380915A0390915B034C1532
:100710005D056E057F056CF4222369F00197E1F019
:1007200060914103809158030E948F0881E090E01E
:100730000FC0222399F3019679F061E08091410383
:10074000811160E0809158030E948F088FEF9FEF26
:1007500090935B0380935A0380914C0390914D03D7
:10076000A0914E03B0914F03409144035091450333
:100770006091460370914703481759076A077B0742
:100780007CF5409148035091490360914A03709170
:100790004B0384179507A607B7070CF044C00E94C7
:1007A000BE0880915A0390915B038130910561F1FD
:1007B000019699F480914C0390914D03A0914E03C2
:1007C000B0914F030197A109B10980934C03909315
:1007D0004D03A0934E03B0934F0382E090E045C0D9
:1007E00084179507A607B707F1F44091500350917D
:1007F0005103609152037091530384179507A60724
:10080000B70774F40E94BE0880914C0390914D0389
:10081000A0914E03B0914F030196A11DB11DD5CFFC
:1008200083E090E022C040914803509149036091D9
:100830004A0370914B0384179507A607B707C9F4BD
:1008400040915003509151036091520370915303B2
:10085000481759076A077B071CF40E94BE08AACFF5
:1008600084E090E002C081E090E090935D0380938B
:100870005C03FF91EF91BF91AF919F918F917F9119
:100880006F915F914F913F912F91FF90EF90DF908B
:10089000CF900F900FBE0F901F901895FC01828192
:1008A000882311F061E001C060E080810C948F0822
:1008B000FC018281882311F060E001C061E0808149
:1008C0000C948F08CF92DF92EF92FF920F931F93B9
:1008D000CF93DF93CDB7DEB760970FB6F894DEBF46
:1008E0000FBECDBF7C016AE371E0CE0101960E948C
:1008F000E002BE016F5F7F4FC7010E943A08182FC8
:10090000CE0101960E94DB02112331F180E491E0D7
:100910000E946C07E8E8F2E000E010E080818823A4
:1009200009F41AC20F5F1F4F71960A301105B1F713
:100930000FEF002E000C110B1093B7010093B601BE
:1009400010928102109280028FEF9FEF90937F02AE
:1009500080937E020E94E3071D861E861F86188AEA
:1009600066E471E0CE0107960E94E00264E971E05E
:10097000CE0101960E94E0029E01235F3F4FAE012F
:10098000495F5F4FBE016F5F7F4FC7010E94130930
:10099000182FCE0101960E94DB02CE0107960E941D
:1009A000DB02112371F16D857E858F85988997FD16
:1009B00005C0709373026093720204C0609172026A
:1009C00070917302CE0107960E946E0764E971E090
:1009D000CE0101960E94E002BE01695F7F4FCE0109
:1009E00001960E949A076AE471E00E9473020E94D5
:1009F000AD07CE0101960E94DB02CE0107960E9450
:100A0000DB021D861E861F86188A66E471E0CE0111
:100A100007960E94E0026EE471E0CE0101960E940A
:100A2000E0029E01235F3F4FAE01495F5F4FBE0171
:100A30006F5F7F4FC7010E941309182FCE010196E7
:100A40000E94DB02CE0107960E94DB02112371F1A6
:100A50006D857E858F85988997FD05C07093790295
:100A60006093780204C06091780270917902CE019F
:100A700007960E946E076EE471E0CE0101960E9417
:100A8000E002BE01695F7F4FCE0101960E949A0786
:100A90006AE471E00E9473020E94AD07CE010196E4
:100AA0000E94DB02CE0107960E94DB021D861E8695
:100AB0001F86188A66E471E0CE0107960E94E00264
:100AC00069E971E0CE0101960E94E0029E01235F78
:100AD0003F4FAE01495F5F4FBE016F5F7F4FC70160
:100AE0000E941309182FCE0101960E94DB02CE014D
:100AF00007960E94DB021123B1F14D855E856F855B
:100B0000788977FD09C04093740250937502609311
:100B100076027093770208C040917402509175027A
:100B20006091760270917702CE0107960E94B60717
:100B300069E971E0CE0101960E94E002BE01695FA1
:100B40007F4FCE0101960E949A076AE471E00E94ED
:100B500073020E94AD07CE0101960E94DB02CE0116
:100B600007960E94DB0261E571E0CE0101960E94CA
:100B7000E002BE016F5F7F4FC7010E943A08182F45
:100B8000CE0101960E94DB02112309F160E273E0BD
:100B9000CE0107960E946E0767E571E0CE010196CF
:100BA0000E94E002BE01695F7F4FCE0101960E9464
:100BB0009A076AE471E00E9473020E94AD07CE01B9
:100BC00001960E94DB02CE0107960E94DB026AE5D5
:100BD00071E0CE0101960E94E002BE016F5F7F4F7F
:100BE000C7010E943A08182FCE0101960E94DB022D
:100BF0001123B1F06FE571E0CE0101960E94E00291
:100C000062E872E0CE0101960E949A0763E671E005
:100C10000E9473020E94AD07CE0101960E94DB0282
:100C200067E671E0CE0101960E94E002BE016F5FAF
:100C30007F4FC7010E943A08182FCE0101960E94EB
:100C4000DB021123F9F0E091B601EA3038F421E13A
:100C5000E202F0011124E857FD4F10820E94E307E1
:100C600082E393E00E944E0410928102109280026F
:100C70008FEF9FEF90937F0280937E028CE691E04E
:100C80000E946C0762E771E0CE0101960E94E002CB
:100C9000BE016F5F7F4FC7010E943A08182FCE0137
:100CA00001960E94DB02112321F082E393E00E946F
:100CB000580468E771E0CE0101960E94E002BE018F
:100CC0006F5F7F4FC7010E943A08182FCE0101962F
:100CD0000E94DB02112321F082E393E00E944E0484
:100CE0001D861E861F86188A6EE771E0CE01079664
:100CF0000E94E00262E871E0CE0101960E94E002EB
:100D00009E01235F3F4FAE01495F5F4FBE016F5FA2
:100D10007F4FC7010E941309182FCE0101960E9430
:100D2000DB02CE0107960E94DB021123D9F1E0918C
:100D30006802F091690287819085A185B2858787D5
:100D4000908BA18BB28B85E891E00E945A078AE8CC
:100D500091E00E945A0726C021E1209FC001219FF7
:100D6000900D1124FC01E857FD4F6F0181E0808355
:100D70008AE090E0A0E0B0E081839283A383B48313
:100D80008FEF9FEF9683858385EA91E09287818735
:100D90000E94D308F6016387748785879687108A37
:100DA0001786C7CD60960FB6F894DEBF0FBECDBFD5
:100DB000DF91CF911F910F91FF90EF90DF90CF9037
:100DC0000895FC018281882339F080810E946608A1
:100DD00021E0892B41F006C080810E94660821E055
:100DE000019709F020E0822F0895833081F028F4E4
:100DF000813099F08230A1F008958730A9F08830D1
:100E0000B9F08430D1F4809180008F7D03C080914F
:100E100080008F7780938000089584B58F7702C01B
:100E200084B58F7D84BD08958091B0008F7703C015
:100E30008091B0008F7D8093B0000895CF93DF93B1
:100E400090E0FC01E655FF4F2491FC01EA56FF4F6C
:100E50008491882361F190E0880F991FFC01E85884
:100E6000FF4FC591D491FC01EE57FF4FA591B4916E
:100E7000611109C09FB7F8948881209582238883E7
:100E8000EC912E230BC0623061F49FB7F8948881F7
:100E9000322F309583238883EC912E2B2C939FBF88
:100EA00006C08FB7F894E8812E2B28838FBFDF917F
:100EB000CF910895009769F0FC0101900020E9F7B7
:100EC0003197AF01481B590BBC0181EC91E00C94A8
:100ED000960080E090E008950C945A070F931F93BA
:100EE000CF93DF93CDB7DEB762970FB6F894DEBF2E
:100EF0000FBECDBF8C01CB01F8011182108213828D
:100F00001282158214824AE0BE016F5F7F4F0E94F9
:100F1000C10EBE016F5F7F4FC8010E94AD02629695
:100F20000FB6F894DEBF0FBECDBFDF91CF911F91FA
:100F30000F910895CF93DF93EC01FB01448155811C
:100F4000608171810E943302811103C0CE010E9431
:100F50006102CE01DF91CF910895FC01448155815A
:100F60006081718181EC91E00C9496000F931F9346
:100F7000CF93DF93CDB7DEB7A1970FB6F894DEBF5E
:100F80000FBECDBF8C01CB01BA01F80111821082D6
:100F900013821282158214822AE0AE014F5F5F4FE6
:100FA0000E94E10EBE016F5F7F4FC8010E94AD023B
:100FB000A1960FB6F894DEBF0FBECDBFDF91CF91E3
:100FC0001F910F91089580916A0290916B020E9487
:100FD000580480917002909171020E94E10688236A
:100FE00069F0E0916802F091690287819085A1859E
:100FF000B2858787908BA18BB28B15C0E091680278
:10100000F091690283819481A581B6818787908B55
:10101000A18BB28B80917002909171020E94E106C7
:101020008823C1F3DECF80917002909171020E94FB
:10103000E1068111F8CFE0916802F0916902838D99
:10104000948D81309105E9F71386148615861686EE
:101050001786108A118A128A88E19CEFAFEFBFEFE2
:1010600083839483A583B68380916A0290916B02F7
:101070000C944E04EF92FF920F931F93CF93DF9344
:10108000FC0126813781232BC9F08B01EC01E28022
:10109000F380FB0160817181C7010E9441130097B9
:1010A00069F08E199F0997FD09C0F80124813581E7
:1010B000820F931F9987888781E001C080E0DF91CC
:1010C000CF911F910F91FF90EF900895CF93DF93F1
:1010D000282F30E0F901E254FF4F8491F901E655E1
:1010E000FF4FD491F901EA56FF4FC491CC2391F000
:1010F00081110E94F506EC2FF0E0EE0FFF1FE45780
:10110000FF4FA591B491EC91ED2381E090E021F4A3
:1011100080E002C080E090E0DF91CF9108951F93BE
:10112000CF93DF93282F30E0F901E254FF4F8491F1
:10113000F901E655FF4FD491F901EA56FF4FC491EA
:10114000CC23C1F0162F81110E94F506EC2FF0E0A0
:10115000EE0FFF1FEE57FF4FA591B4919FB7F89484
:10116000111104C08C91D095D82302C0EC91DE2BD4
:10117000DC939FBFDF91CF911F910895809142032F
:10118000882341F061E0809156030E948F081092FD
:101190004203089560E0809156030E948F0881E029
:1011A0008093420308952FB7F8946091BD01709128
:1011B000BE018091BF019091C0012FBF08950F9390
:1011C0001F930E94D3086093C9017093CA01809352
:1011D000CB019093CC0181EC91E00E94D20097FF6B
:1011E0001FC00E94D3080091C9011091CA0120912B
:1011F000CB013091CC01DC01CB01801B910BA20B08
:10120000B30B0091C5011091C6012091C701309127
:10121000C80180179107A207B307E8F28FEF9FEF8D
:101220001F910F9108952F923F924F925F926F926C
:101230007F928F929F92AF92BF92CF92DF92EF9266
:10124000FF920F931F93CF93DF93CDB7DEB72C9709
:101250000FB6F894DEBF0FBECDBF5C017B013A0133
:1012600029018C010E5F1F4FBA01C8010E941902AB
:101270004C01B701C8010E94190297FCA7C097FD55
:10128000A5C06CE871E0CE0107960E94E002B301B0
:10129000C8010E9419026C01382E2D2CB701C8011B
:1012A0000E941902D7011496ED90FC901597E80E54
:1012B000F91ECE14DF0418F06701E32CF22C6CE861
:1012C00071E0CE0101960E94E002F50106811781CE
:1012D000C016D106F0F4E016F10608F48701D50136
:1012E0001296ED91FC911397E00FF11FF0801082A0
:1012F00012966D917C9113976C0D7D1DCE01019618
:101300000E94AD02F50182819381FC01E00FF11F83
:10131000F0828F8198850097A9F069817A816115A3
:10132000710571F049855A852D813E814217530719
:1013300038F00E942B138D819E819C878B8712C071
:101340000E94CE1189819A8198878F838B819C819D
:101350009A8789878D819E819C878B871A821982C3
:101360001C821B821E821D82CE0101960E94DB021E
:101370008B859C85892B89F08F819885009719F042
:101380000E949A0E03C060E070E0CB01D2016D9321
:101390007D938D939C93139709C08FEC91E2A4EFFA
:1013A000BFEFF20180839183A283B383D3011496AC
:1013B0008D919C911597880E991EF50191868086D6
:1013C000CE0107960E94DB0281E001C080E02C96EE
:1013D0000FB6F894DEBF0FBECDBFDF91CF911F9146
:1013E0000F91FF90EF90DF90CF90BF90AF909F90C4
:1013F0008F907F906F905F904F903F902F900895C7
:101400008EE291E090935F0280935E0280E692E02C
:101410000E94DB0282E892E00C94DB02CF93DF9320
:10142000CDB7DEB72C970FB6F894DEBF0FBECDBF99
:10143000789484B5826084BD84B5816084BD85B5AF
:10144000826085BD85B5816085BD80916E008160BB
:1014500080936E0010928100809181008260809361
:101460008100809181008160809381008091800063
:101470008160809380008091B10084608093B1008E
:101480008091B00081608093B00080917A00846088
:1014900080937A0080917A00826080937A008091B4
:1014A0007A00816080937A0080917A0080688093CE
:1014B0007A001092C100E091D101F091D20182E056
:1014C0008083E091D101F091D2011082E091CD01B1
:1014D000F091CE011082E091CF01F091D00180E136
:1014E00080831092D901E091D501F091D60186E078
:1014F0008083E091D301F091D40180818061808369
:10150000E091D301F091D401808188608083E091E3
:10151000D301F091D401808180688083E091D30170
:10152000F091D40180818F7D808383E090E0A0E002
:10153000B0E08093C5019093C601A093C701B0931A
:10154000C80182E393E00E944E0481E0809343034C
:1015500060914103809158030E948F0881E090E0E0
:1015600090935B0380935A03F8945BE6E52E53E077
:10157000F52E00E010E060E2C62E63E0D62ED70123
:101580008D919D917D018C9DB0018D9D700D9C9DD7
:10159000700D1124072E000C880B990B0E94340F3C
:1015A0009B01AC0160E074E284E79BE40E94881038
:1015B00020E030E040E85FE30E941B104B015C013B
:1015C00020E030E040E857E40E942D0F0F5F1F4FEE
:1015D00087FF1FC01092800010928100109285003A
:1015E00010928400C501B4010E94FA107093890022
:1015F0006093880003301105C9F024F4023011050E
:1016000089F00CC004301105A9F005301105B1F0C6
:1016100005C00530110509F0B2CF1FC080918100CF
:1016200081600FC08091810082600BC08091810039
:10163000836007C080918100846003C08091810035
:101640008560809381008091810088608093810013
:1016500080916F00826080936F00789486E0282EDE
:10166000312C95E0892E912C24E0E22EF12C33E0F0
:10167000C32ED12C42E0A42EB12C0E94D3082B0102
:101680003C0108E812E0F8012081222309F443C05C
:101690004385548565857685D301C201841B950BEE
:1016A000A60BB70B41815281638174818417950722
:1016B000A607B70708F1213019F0223031F012C027
:1016C0000184F285E02D09950DC061E0F801808567
:1016D000811160E0D80118966C93189717968C9139
:1016E0000E948F08F8014386548665867686878532
:1016F00090890196908B8787D80115968D919C9142
:10170000169797FD08C01F962D913C91509728176A
:1017100039070CF01C920F5E1F4FB3E002331B071A
:1017200009F0B1CF81EC91E00E94F400181619067F
:101730000CF069C06CE871E0CE0107960E94E002EF
:101740000E94DF0897FD0CC089831A8241E050E0B7
:10175000BE016F5F7F4FCE0107960E943302F0CF2C
:101760001A8219821C821B821E821D8260E672E030
:10177000CE0101960E94C402BE01695F7F4FCE0177
:1017800001960E949A07BC0180E692E00E94C40282
:10179000CE0101960E94DB02CE0107960E94DB0279
:1017A0008EE592E00E9462044091640250916502CD
:1017B0004115510521F16091660270916702611532
:1017C0007105E9F04617570708F4BA0180916002E5
:1017D00090916102461B570B50936502409364023F
:1017E000680F791F0E943213E0916002F09161024C
:1017F0008091640290916502E80FF91F10821092A7
:1018000067021092660280916E0290916F020E94B0
:10181000E106882361F08091800290918102892BFA
:1018200031F481E090E09093810280938002809176
:101830007E0281FF14C1E0918002F0918102319714
:10184000E830F10508F00BC1EC5CFF4F0C9430114F
:10185000B0928102A092800202C10E94E3078DE84B
:1018600091E00E946C0780916A0290916B020E9445
:101870005804E0916802F091690287819085A18502
:10188000B2858787908BA18BB28BD0928102C09258
:101890008002E5C0E0916802F091690280917802CF
:1018A000909179028C01092E000C220B330B438599
:1018B000548565857685400F511F621F731F078110
:1018C000108521853285041715072607370724F46C
:1018D000F0928102E0928002E0916C02F0916D0240
:1018E00020812E3008F02E502770206420937C0039
:1018F00020917A00206420937A0020917A0026FDBE
:10190000FCCF209178004091790030E0342B409159
:10191000720250917302241735070CF4A0C0E091B5
:101920006802F0916902092E000CAA0BBB0B4385DB
:10193000548565857685840F951FA61FB71F8787F9
:10194000908BA18BB28B82E991E00E946C07809111
:101950007E0290917F02886090937F0280937E0246
:1019600090928102809280027AC087E991E00E9481
:101970006C07E0916802F091690283859485A585E2
:10198000B6858787908BA18BB28B80917E029091D8
:101990007F02806156C0E0916802F0916902838DF8
:1019A000948D019709F05BC05DC0609174027091E5
:1019B000750280917602909177020E94340F2091F7
:1019C0007A0230917B0240917C0250917D020E940C
:1019D0001C102B013C010E94D3080E94320F9B0176
:1019E000AC01C301B2010E942D0F87FF38C08CE902
:1019F00091E00E946C07E7E0F0E0F0938102E09351
:101A00008002E0916802F09169021786108A118ABB
:101A1000128A25C0E0916802F0916902838D948D4D
:101A20000197E9F434C0E0916802F0916902838D76
:101A3000948D892BA1F481EA91E00E946C078FEFCD
:101A40009FEF90937F0280937E021092810210920A
:101A5000800280916A0290916B020E944E040E9463
:101A60009B010BCE86EA91E00E946C070E94D3088E
:101A70000E94320F60937A0270937B0280937C0203
:101A800090937D023092810220928002E8CF8BEA0F
:101A900091E00E946C07A8E0B0E0B0938102A093AF
:101AA0008002DDCFCF931092C4011092C30188EE63
:101AB00093E0A0E0B0E08093C5019093C601A093AD
:101AC000C701B093C8018CE191E09093C20180936B
:101AD000C10185EC90E09093CE018093CD0184EC20
:101AE00090E09093D0018093CF0180EC90E09093B0
:101AF000D2018093D10181EC90E09093D401809346
:101B0000D30182EC90E09093D6018093D50186ECCE
:101B100090E09093D8018093D7011092DA0110924F
:101B2000DB011092DC011092DD0188E0E6E0F1E0DB
:101B3000A3E6B3E001900D928A95E1F78AE0EEE02A
:101B4000F1E0ABE6B3E001900D928A95E1F71092D7
:101B500042038BE090E090935703809356038CE010
:101B600090E0909359038093580381E090E0909324
:101B70005D0380935C031092410361E08BE00E945F
:101B80001E0761E0809158030E941E0788E59EE9C8
:101B9000AFEFBFEF8093440390934503A0934603B8
:101BA000B093470388EC92E3A0E0B0E08093480351
:101BB00090934903A0934A03B0934B0310924C03B4
:101BC00010924D0310924E0310924F031092500347
:101BD000109251031092520310925303C1E0C0932C
:101BE0004303109260031092610385E090E09093AC
:101BF0003F0380933E031092400360E00E941E0763
:101C000084E090E090933C0380933B03C0933D03BA
:101C100062E00E941E078EE090E09093360380936E
:101C2000350362E00E941E0783EC95EFA8E9B0E45B
:101C30008093370390933803A0933903B0933A030A
:101C400088E090E0909333038093320361E00E9438
:101C50001E07C093340361E0809132030E948F0815
:101C6000E8E8F2E01082719683E0E233F807D1F7FA
:101C700060EB71E082E892E00E94E00281E493E090
:101C8000909369028093680282E393E090936B02E1
:101C900080936A0285E393E090936D0280936C02D7
:101CA0008EE393E090936F0280936E028BE393E058
:101CB000909371028093700286E990E09093730292
:101CC0008093720280E197E2A0E0B0E0809374021A
:101CD00090937502A0937602B093770281E090E032
:101CE000909379028093780210927A0210927B028C
:101CF00010927C0210927D028EE291E090935F023E
:101D000080935E026CE871E080E692E00E94E0025F
:101D10006CE871E080E692E00E94AD0210926702EA
:101D20001092660284E391E090935F0280935E02DA
:101D3000CF9108951F93FC0199278827BC01E8944F
:101D400011911032E9F3193010F01E30C8F31B3234
:101D500051F01D3249F4689406C00E94CC0E610F08
:101D6000711D811D911D119110531A30B0F33EF475
:101D700090958095709561957F4F8F4F9F4F1F91E4
:101D80000895BB274A3031F4992322F4BDE290959F
:101D900081959F4F0C94040F592F482F372F262FD2
:101DA000660F771F881F991F660F771F881F991F5F
:101DB000620F731F841F951F660F771F881F991F5F
:101DC0000895BB27FA01A62F6217710581059105B9
:101DD000330B30FB66F0AA27660F771F881F991F09
:101DE000AA1FA21710F0A21B63953850A9F7A05D97
:101DF000AA3308F0A95DA19336F7B111B19310820F
:101E0000CA010C941D0FBB27FB015527AA27880F79
:101E1000991FAA1FA41710F0A41B83955051B9F75E
:101E2000A05DAA3308F0A95DA193009779F7B111DD
:101E3000B1931192CB010C941D0FDC01FC01672FB3
:101E400071917723E1F7329704C07C916D93708391
:101E50006291AE17BF07C8F308950E946F0F08F490
:101E600081E00895E89409C097FB3EF49095809531
:101E7000709561957F4F8F4F9F4F9923A9F0F92F50
:101E800096E9BB279395F695879577956795B795CE
:101E9000F111F8CFFAF4BB0F11F460FF1BC06F5FB4
:101EA0007F4F8F4F9F4F16C0882311F096E911C0C6
:101EB000772321F09EE8872F762F05C0662371F0E7
:101EC00096E8862F70E060E02AF09A95660F771FFB
:101ED000881FDAF7880F9695879597F90895990FD7
:101EE0000008550FAA0BE0E8FEEF16161706E807E4
:101EF000F907C0F012161306E407F50798F0621B05
:101F0000730B840B950B39F40A2661F0232B242BD9
:101F1000252B21F408950A2609F4A140A6958FEFF8
:101F2000811D811D089597F99F6780E870E060E04A
:101F300008959FEF80EC089500240A941616170662
:101F400018060906089500240A94121613061406AA
:101F500005060895092E0394000C11F4882352F00D
:101F6000BB0F40F4BF2B11F460FF04C06F5F7F4FC5
:101F70008F4F9F4F089557FD9058440F551F59F0AC
:101F80005F3F71F04795880F97FB991F61F09F3F66
:101F900079F087950895121613061406551FF2CF8F
:101FA0004695F1DF08C0161617061806991FF1CFDF
:101FB00086957105610508940895E894BB27662706
:101FC0007727CB0197F908952F923F924F925F9216
:101FD0006F927F928F929F92AF92BF92CF92DF9239
:101FE000EF92FF920F931F93CF93DF93CDB7DEB79E
:101FF000CA1BDB0B0FB6F894DEBF0FBECDBF099432
:102000002A88398848885F846E847D848C849B8488
:10201000AA84B984C884DF80EE80FD800C811B8196
:10202000AA81B981CE0FD11D0FB6F894DEBF0FBEC5
:10203000CDBFED0108955058BB27AA270E94331049
:102040000C94AA0F0E949C0F38F00E94A30F20F05E
:1020500039F49F3F19F426F40C94990F0EF4E0958F
:10206000E7FB0C94930FE92F0E94BB0F58F3BA17AC
:10207000620773078407950720F079F4A6F50C949E
:10208000DD0F0EF4E0950B2EBA2FA02D0B01B90138
:1020900090010C01CA01A0011124FF27591B99F0DE
:1020A000593F50F4503E68F11A16F040A22F232FEA
:1020B000342F4427585FF3CF469537952795A7953A
:1020C000F0405395C9F77EF41F16BA0B620B730BE1
:1020D000840BBAF09150A1F0FF0FBB1F661F771F52
:1020E000881FC2F70EC0BA0F621F731F841F48F407
:1020F000879577956795B795F7959E3F08F0B0CF90
:102100009395880F08F09927EE0F97958795089576
:102110000E949C100C94AA0F0E94A30F58F00E94DA
:102120009C0F40F029F45F3F29F00C94930F51115C
:102130000C94DE0F0C94990F0E94BB0F68F3992347
:10214000B1F3552391F3951B550BBB27AA276217B3
:102150007307840738F09F5F5F4F220F331F441FC0
:10216000AA1FA9F335D00E2E3AF0E0E832D09150F4
:102170005040E695001CCAF72BD0FE2F29D0660FE1
:10218000771F881FBB1F261737074807AB07B0E824
:1021900009F0BB0B802DBF01FF2793585F4F3AF02A
:1021A0009E3F510578F00C94930F0C94DE0F5F3F27
:1021B000E4F3983ED4F3869577956795B795F795B0
:1021C0009F5FC9F7880F911D9695879597F9089598
:1021D000E1E0660F771F881FBB1F62177307840734
:1021E000BA0720F0621B730B840BBA0BEE1F88F743
:1021F000E09508950E9401116894B1110C94DE0FCE
:1022000008950E94C30F88F09F5798F0B92F99271F
:10221000B751B0F0E1F0660F771F881F991F1AF0D1
:10222000BA95C9F714C0B13091F00E94DD0FB1E04A
:1022300008950C94DD0F672F782F8827B85F39F049
:10224000B93FCCF3869577956795B395D9F73EF46A
:1022500090958095709561957F4F8F4F9F4F089512
:10226000EE0FFF1F0590F491E02D09940F931F933B
:10227000CF93DF938230910510F482E090E0E091FB
:102280007703F091780320E030E0A0E0B0E03097F1
:1022900019F1408151810281138148175907C8F013
:1022A0008417950769F4109731F012960C931297E2
:1022B00013961C9327C0009377031093780322C0D2
:1022C0002115310519F04217530718F49A01BD0181
:1022D000EF01DF01F801DBCF21153105F9F0281BF3
:1022E000390B2430310580F48A819B816115710599
:1022F00021F0FB019383828304C090937803809341
:102300007703FE01329644C0FE01E20FF31F819372
:10231000919322503109398328833AC02091750363
:1023200030917603232B41F4209102013091030177
:1023300030937603209375032091000130910101C1
:102340002115310541F42DB73EB74091040150915C
:102350000501241B350BE0917503F0917603E2171C
:10236000F307A0F42E1B3F0B2817390778F0AC01B8
:102370004E5F5F4F2417350748F04E0F5F1F509395
:102380007603409375038193919302C0E0E0F0E0FF
:10239000CF01DF91CF911F910F910895CF93DF93DC
:1023A000009709F481C0FC01329713821282A09138
:1023B0007703B0917803109781F420813181820FE7
:1023C000931F20917503309176032817390751F533
:1023D000F0937603E093750367C0ED0120E030E0F1
:1023E000CE17DF0740F44A815B819E0141155105FC
:1023F000F1F0EA01F5CFD383C28340815181840F8C
:10240000951FC817D90759F488819981840F951FA2
:102410000296918380838A819B8193838283211595
:10242000310529F4F0937803E09377033DC0E90187
:10243000FB83EA8349915991C40FD51FEC17FD071F
:1024400061F480819181840F951F0296E90199833F
:102450008883828193819B838A83E0E0F0E01296F7
:102460008D919C911397009719F0FD01DC01F7CF36
:102470008D919C9111979D012E5F3F4F820F931F6D
:1024800020917503309176032817390769F4309746
:1024900029F4109278031092770302C013821282FB
:1024A000B0937603A0937503DF91CF910895A0E0D8
:1024B000B0E0EDE5F2E10C94E80FEC01009721F4B7
:1024C000CB010E943611B4C0FC01E60FF71F9C013E
:1024D00022503109E217F30708F4A8C0D9010D9181
:1024E0001C91119706171707B0F00530110508F475
:1024F0009BC0C80104978617970708F495C002503F
:102500001109061B170B019311936D937C93CF0157
:102510000E94CE1189C05B01A01AB10A4C01800E45
:10252000911EA0917703B0917803612C712CE12C5E
:10253000F12C109709F446C08D919C911197A81524
:10254000B905B1F56C0142E0C40ED11CCA14DB041C
:1025500078F14C018A189B08640142E0C40ED11C3A
:102560001296BC9012971396AC91B5E0CB16D1049D
:1025700040F0B282A38391828082D9016D937C93D3
:1025800009C00E5F1F4F800F911FF9019183808357
:10259000EB2DFA2FE114F10431F0D7011396FC93DF
:1025A000EE93129741C0F0937803E09377033CC019
:1025B0006816790608F43C017D0112960D90BC91D5
:1025C000A02DB7CF80917503909176038816990658
:1025D000E1F466167706C8F480910001909101013C
:1025E000009741F48DB79EB74091040150910501C9
:1025F000841B950BE817F907C8F4F0937603E09372
:102600007503F901718360830FC0CB010E943611FD
:102610007C01009759F0A801BE010E942213CE014F
:102620000E94CE11C70104C0CE0102C080E090E03C
:10263000CDB7DEB7EEE00C94041081E090E0F894A2
:102640000C945B13FB01DC0102C001900D92415020
:102650005040D8F70895FB01DC0101900D92002055
:10266000E1F70895FB01DC014150504048F0019032
:102670000D920020C9F701C01D9241505040E0F773
:102680000895FB0151915523A9F0BF01DC014D9143
:1026900045174111E1F759F4CD010190002049F0AF
:1026A0004D9140154111C9F3FB014111EFCF81E07C
:1026B00090E00197089510E0CAE6D0E004C0FE0162
:1026C0000E9430112196CB36D107C9F7F894FFCF7D
:1026D0000000790380000100080020004000010094
:1026E0000800400000010004000000002C019600DA
:1026F000C3007901F400D200E6000000000095005C
:1027000000000000620410270000415F544E3F00AB
:10271000415F544E21005F5653005F565200415FA7
:1027200000535F52455600535F00515F533F0053C3
:10273000215F005F534E00415F512100415F5154C2
:102740002100415F4D542B00415F4D542D005F56D9
:102750004D004D5F006D6F7665000D0A005F4247CA
:102760005F005F56545F005F464C5F005F53455FFC
:10277000005F52525F005F50525F005F53525F0034
:062780005859303300003F
:00000001FF
